S0110000486F6D65776F726B312E7372656396
S11300000C942A000C9434000C9434000C943400A6
S11300100C9434000C9434000C9434000C9434008C
S11300200C9434000C9434000C9434000C9434007C
S11300300C9434000C9434000C9434000C9434006C
S11300400C9434000C9434000C9434000C9434005C
S11300500C94340011241FBECFE5D8E0DEBFCDBF21
S11300600E9447000C9454000C9400009C0183E00F
S113007083BF83E807C082BF98B7916098BF08B672
S113008000FEFDCF21503109B0F713BE0895B89A90
S1130090B99888EC90E00E943600C09A88EC90E011
S10F00A00E943600C098F5CFF894FFCF02
S9030000FC
